:020000040800F2
:10000000B806002039020008F70D0008810D00082D
:10001000F50D00082F040008AD0F000800000000D7
:10002000000000000000000000000000FB0D0008C0
:100030003104000800000000F90D0008FD0D000863
:10004000530200085302000853020008530200083C
:10005000530200085302000853020008530200082C
:10006000530200085302000853020008530200081C
:10007000530200085302000853020008530200080C
:100080005302000853020008530200080000000059
:100090000000000000000000000000005302000803
:1000A00053020008530200085302000853020008DC
:1000B00053020008530200085302000853020008CC
:1000C00053020008530200085302000853020008BC
:1000D0005302000853020008530200080000000009
:1000E00053020008530200085302000800000000F9
:1000F00000000000000000000000000053020008A3
:1001000000000000530200085302000853020008D8
:1001100000000000000000000000000000000000DF
:10012000530200085302000853020008530200085B
:100130005302000800000000000000000000000062
:100140000000000000000000000000005302000852
:10015000530200085302000853020008530200082B
:1001600053020008530200080000000000000000D5
:10017000000000000000000000000000000000007F
:100180000000000053020008000000000000000012
:10019000530200085302000800F002F800F03CF897
:1001A0000AA090E8000C82448344AAF10107DA45D2
:1001B00001D100F031F8AFF2090EBAE80F0013F0E8
:1001C000010F18BFFB1A43F001031847640E00002B
:1001D000840E0000103A24BF78C878C1FAD85207BC
:1001E00024BF30C830C144BF04680C6070470000B1
:1001F0000023002400250026103A28BF78C1FBD830
:10020000520728BF30C148BF0B6070471FB500F0D0
:10021000FDFE1FBD10B510BD00F0CFF81146FFF771
:10022000F5FF00F0D5FE00F0EDF803B4FFF7F2FFA4
:1002300003BC00F0F5F80000094880470948004772
:10024000FEE7FEE7FEE7FEE7FEE7FEE7FEE7FEE786
:10025000FEE7FEE704480549054A064B70470000E3
:10026000910E000899010008B8000020B80600208F
:10027000B8020020B802002053EA020C00F06980A6
:100280002DE9F04B4FF00006002B1FBFB3FA83F5AA
:1002900003FA05F424FA05F65E4012BF1643B2FADB
:1002A00082F502FA05F4C5F120051EBF22FA05FC0D
:1002B00044EA0C04203556EA044C4FEA144418BFB3
:1002C000641C4FF000084FF00009904271EB030CE2
:1002D00039D3002919BFB1FA81F701FA07F6B0FA4C
:1002E00080F700FA07F6C7F120071EBF20FA07FCC7
:1002F00046EA0C062037B6FBF4FCA7EB0507103FD7
:1003000007F01F0BCBF120060CFA0BFB2CFA06F6BC
:1003100044BFB3460026202FA4BF5E464FF0000B1B
:100320005BEA060C08BF4FF0010B19EB0B09ABFBA6
:10033000027C48EB0608C01B06FB02CC0BFB03CC7F
:1003400071EB0C01C1E70B46024641464846BDE849
:10035000F08B13B54FF000004FF00001AFF30080B9
:10036000BDE81C4070474FF0000200B513469446AC
:100370009646203922BFA0E80C50A0E80C50B1F1FD
:100380002001BFF4F7AF090728BFA0E80C5048BF11
:100390000CC05DF804EB890028BF40F8042B08BFAF
:1003A000704748BF20F8022B11F0804F18BF00F8AB
:1003B000012B7047704770477047754600F02CF866
:1003C000AE4605006946534620F00700854618B042
:1003D00020B5FFF73FFFBDE820404FF000064FF08B
:1003E00000074FF000084FF0000B21F00701AC466A
:1003F000ACE8C009ACE8C009ACE8C009ACE8C00989
:100400008D46704710B50446AFF300802046BDE826
:100410001040FFF70ABF0000004870475800002056
:1004200001491820ABBEFEE7260002007047FEE738
:10043000704700002DE9F84FDFF8B8A10022012431
:1004400003254FF00F090AF1040BAAF1040E00BFB7
:100450000B6804FA02F63340B34273D10F7907F008
:100460000307012F01D0022F16D187684FEA4208F7
:1004700005FA08FC27EA0C07D1F80CC00CFA08FCB6
:100480004CEA070CC0F808C04768B7430E79C6F3BA
:10049000001696403E4346600E79F643B6070DD0EF
:1004A000C768560005FA06FC27EA0C07D1F808C011
:1004B0000CFA06FC4CEA070CC0F80CC00E7906F0EA
:1004C0000306022E10D1D60800EB8608D8F820606B
:1004D00057074FEAD76C09FA0CF7BE430F6907FAC2
:1004E0000CF73743C8F8207006684FEA420C05FA4B
:1004F0000CF7BE430F7907F0030707FA0CF73743F1
:1005000007604E6816F4403F6DD03B4E376847F4A5
:1005100080473760366822F0030706F4804600966D
:10052000364E07EB060CDCF8086897073F0F09FA10
:1005300007F826EA0806DFF8C880404503D14FF0E7
:1005400000081EE04FE0DFF8BC80404502D14FF0CC
:10055000010816E0DFF8B080404502D14FF00208F4
:100560000FE0DFF8A880404502D14FF0030808E013
:10057000DFF89C80404502D14FF0040801E04FF0C5
:10058000070808FA07F848EA0608CCF80888DAF8F5
:1005900000605746D1F804C09E435FEACC2C00D5DA
:1005A0001E433E60DBF800605F46D1F804C09E4306
:1005B0005FEA8C2C00D51E433E60DEF80060774673
:1005C000D1F804C09E435FEA8C3C00D51E433E60D8
:1005D000084F083F3E68D1F804C09E435FEACC3C18
:1005E00000D51E433E60521C102AFFF431AFBDE817
:1005F000F88F0000083C01404438024000300140C0
:10060000000002400004024000080240000C0240CA
:10061000001002400AB1816170470904FBE7000045
:10062000014880687047000000000020024881688F
:100630000278114481607047000000200B4810B51B
:10064000016841F400710160016841F4806101605A
:10065000016841F480710160032000F061F80F200F
:1006600000F006F800F024F8002010BD003C024025
:1006700070B50D4D04464FF47A712878B1FBF0F057
:100680000A490968B1FBF0F000F0FEFA48B9102CF5
:1006900007D200222146501E00F022F800206C6094
:1006A00070BD012070BD0000000000200C00002083
:1006B0000A4808B5016841F480410160006800F40F
:1006C000804000900548001F016841F080510160A2
:1006D000006800F08050009008BD000044380240DF
:1006E000F0B40E4B1B680C46C3F30223C3F107059D
:1006F000042D00D90425191D072901D2002300E08B
:10070000DB1E012606FA05F1491E214099409E4054
:10071000761E16403143F0BC00F049BC0CED00E001
:10072000064900F0070208684FF6FF03184040EA48
:100730000220034A10430860704700000CED00E0FF
:100740000000FA052DE9F0470E46050065D0DFF8F8
:100750001481D8F80000F7B200F00700B04207D2C9
:1007600088F80070D8F8000000F00700B04254D1BB
:1007700028683D4C810712D5400703D5206840F416
:10078000E05020602878000703D5206840F46040DE
:1007900020602068A96820F0F000084320602878D5
:1007A000C0072DD0304968680839012812D00228C6
:1007B00013D0032811D00968890700292DDA216890
:1007C00021F0030101432160FFF72AFF814641F236
:1007D000883A0EE009688903EFE709688901ECE7C8
:1007E000FFF71EFFA0EB0901514502D90320BDE828
:1007F000F0872068696800F00C00B0EB810FEFD142
:10080000D8F80010404601F00701B14207D907703F
:10081000006800F00700B04201D00120E7E7287827
:10082000400705D52068E96820F4E05008432060BF
:100830002878000706D52068296920F4604040EA3E
:10084000C100206000F038F82168084AC1F30311A4
:10085000515CC8400649086006480068FFF708FF79
:100860000020C4E7003C024008380240161000088F
:100870000C000020040000200448054900680968B5
:10088000044AC1F38221515CC84070470C0000202B
:100890000838024026100008044805490068096825
:1008A000044AC1F34231515CC84070470C0000203B
:1008B0000838024026100008154810B5006810F0EE
:1008C0000C02144813D01449042A0FD0082A0ED160
:1008D0000F4C241F2268236802F03F025B0207D5F9
:1008E0002068C0F38810A0FB010106E0084610BD97
:1008F0002168C1F38811A1FB00010023FFF7BCFCB4
:100900002168C1F30141491C4900B0FBF1F010BD61
:10091000083802400024F40040787D012DE9F84FAA
:1009200004006ED02078DFF84C93C007A9F10405CD
:100930004AD009F104000168C1F38101012908D0FE
:100940000068C0F3810002280AD1D9F800004002F3
:1009500006D52868800337D560680028E1D033E0E9
:100960006068B0F5803F10D0B0F5A02F286810D097
:1009700020F480302860286820F480202860606897
:10098000A8B1FFF74DFE06460DE0286840F4803020
:10099000F4E740F480202860F7E700BFFFF740FE4F
:1009A000801B642873D828688003F7D50CE0FFF714
:1009B00037FE064605E000BFFFF732FE801B6428C5
:1009C000F0D828688003F7D42078DFF8AC8280075D
:1009D0004FF0000A3ED5A748001D016811F00C0F2A
:1009E00008D00068C0F3810002280BD1D9F80000BC
:1009F000400207D42868800716D5E068012800D196
:100A000012E033E1E068B8B10120C8F80000FFF758
:100A100007FE064605E000BFFFF702FE801B022826
:100A2000C0D828688007F7D52868216920F0F80029
:100A300040EAC10028600DE0C8F800A0FFF7F0FD13
:100A4000064604E0FFF7ECFD801B02281FD828684B
:100A50008007F7D42078000722D5864F8748616940
:100A6000703771B101210160FFF7DAFD064604E03D
:100A7000FFF7D6FD801B022809D838688007F7D514
:100A80000EE0C0F800A0FFF7CBFD064605E082E0CF
:100A9000FFF7C6FD801B02287DD838688007F7D491
:100AA0002078400768D5DFF8CCB100270BF13C0B6C
:100AB000DBF80000C0000BD4DBF8001041F08051DF
:100AC000CBF80010DBF80000012700F08050009008
:100AD0006B4E3068C00510D4306840F480703060D0
:100AE000FFF79EFD009005E0FFF79AFD0099401A80
:100AF000022850D83068C005F6D55E4EA0686C3626
:100B000001280FD00528306810D020F00100306097
:100B1000306820F004003060A068B8B1FFF780FDB5
:100B200000900FE0306840F00100F4E740F004006E
:100B30003060F7E7FFF774FD0099411A41F2883001
:100B4000814266D830688007F4D50EE0FFF768FD73
:100B5000009007E0FFF764FD0099411A41F28830E8
:100B6000814256D830688007F4D42FB1DBF80010EA
:100B700021F08051CBF80010A069C8B33D49091D90
:100B80000968C1F3810102294AD00228504607D0E2
:100B9000C8F8600000E03CE0FFF742FD04463BE09F
:100BA0004746C8F86000FFF73BFD064605E000BF7A
:100BB000FFF736FD801B02282BD828688001F7D468
:100BC000D4E907010843A16A2E4A490802EB014112
:100BD000626A41EA8211084394F82C1040EA0161EC
:100BE000C9F8001001203866FFF71AFD044606E038
:100BF0003EE000BFFFF714FD001B022809D828685B
:100C00008001F7D534E000BFFFF70AFD001B022882
:100C100002D90320BDE8F88F28688001F4D427E0CA
:100C20000128F7D0D9F80000E26900F48001914270
:100C30001CD1226A00F03F01914217D147F6C071E2
:100C4000626A0140B1EB821F10D1A26A4FF0FF33FC
:100C500000F4403103EB5202B1EB024F06D194F89D
:100C60002C1000F07060B0EB016F01D00120D1E7D3
:100C70000020CFE70438024000004742800E474280
:100C8000007000400000FFFF10B5401EB0F1807FF3
:100C900001D3012010BD4FF0E02460610F216017E7
:100CA00000F085F90020A06107202061002010BD20
:100CB00070B5040004D094F84100002510B106E09E
:100CC000012070BD84F84050204600F023F8242015
:100CD00084F841002068C16821F40051C1602046B9
:100CE00000F0DEF82068016921F49041016120687C
:100CF000416921F02A0141612068C16841F4005135
:100D0000C1606564202084F8410084F84200656376
:100D1000002070BD10B586B0044614216846FFF768
:100D200022FB14492068884221D11348002102681F
:100D300042F010020260006800F0100005900E48BA
:100D40001438026842F001020260006800F00100FD
:100D500005904FF4C06000900220CDE9010103200E
:100D600003900720049069460448FFF763FB06B030
:100D700010BD000000100140443802400000024055
:100D8000FEE7000070B586B014216846FFF7EBFA65
:100D900016480024016841F080010160016801F0FB
:100DA00080010591016841F008010160016801F0CE
:100DB00008010591016841F00101016000680C4ED5
:100DC00000F001004FF4704505900022294630469E
:100DD000FFF720FC01200095CDE90104694630466B
:100DE0000394FFF727FB06B070BD000030380240C7
:100DF000000C0240FEE7FEE770477047FFF716BCA5
:100E000030B593B030216846FFF7ADFA14210CA835
:100E1000FFF7A9FA1C480024016841F080510160E5
:100E2000006800F0805011901848016841F440417A
:100E300001600068022500F44040119001200390F9
:100E400010200490009506950820CDE90740482021
:100E5000CDE9090504200B906846FFF75FFD08B156
:100E600072B6FEE70F20CDE90C054FF48050CDE9B6
:100E70000E4002210CA81094FFF764FC002801D05A
:100E800072B6FEE713B030BD40380240007000403B
:100E90000248016841F470010160704788ED00E08C
:100EA00070B5044600680169E26821F440511143BD
:100EB00001612169A068E26908436169114308433F
:100EC0002168CA6849F20C639A430243CA602068E9
:100ED0004169A26921F4407111434161314920689F
:100EE000884202D03049884202D1FFF7D5FC01E0A8
:100EF000FFF7C2FCE2690023192164253226B2F50E
:100F0000004F626828D0A0FB0101930F9200FFF709
:100F1000B3F90146B0FBF5F06FF01802504301EB56
:100F2000800006EB0010B0FBF5F000F0F002B1FB22
:100F3000F5F002EB0012B1FBF5F06FF01803584327
:100F400001EB800006EB0010B0FBF5F000F00F00A5
:100F500021681044886070BDA0FB010192185B41BC
:100F6000FFF78AF90146B0FBF5F00201B1FBF5F09D
:100F70006FF01803584301EB800006EBC000B0FB94
:100F8000F5F000F0F80002EB4002B1FBF5F0584339
:100F900001EB800006EBC000B0FBF5F000F00700AD
:100FA000D6E700000010014000140140FEE70907E9
:100FB000090E002804DB00F1E02080F800147047DF
:100FC00000F00F0000F1E02080F8141D70470000D1
:100FD000FFF734FBFFF714FFFFF7D4FE0A48094977
:100FE0000C2201604FF4E131416000218160C16059
:100FF000C0E904128161C161FFF75AFE08B172B6FF
:10100000FEE7FEE700100140100000204FF04070A6
:10101000E1EE100A7047000000000000000001022D
:101020000304060708090000000001020304000091
:10103000501000080000002010000000D40100083B
:101040006010000810000020A8060000F001000851
:101050000100000010000000000000000024F40067
:040000050800019955
:00000001FF
