:020000040800F2
:10000000C006002039020008EF1100088511000821
:10001000ED110008590500089912000800000000C1
:10002000000000000000000000000000F3110008C4
:100030005B05000800000000F1110008F511000840
:10004000530200085302000853020008530200083C
:10005000530200085302000853020008530200082C
:10006000530200085302000853020008530200081C
:10007000530200085302000853020008530200080C
:100080005302000853020008530200080000000059
:100090000000000000000000000000005302000803
:1000A00053020008530200085302000853020008DC
:1000B00053020008530200085302000853020008CC
:1000C00053020008530200085302000853020008BC
:1000D0005302000853020008530200080000000009
:1000E00053020008530200085302000800000000F9
:1000F00000000000000000000000000053020008A3
:1001000000000000530200085302000853020008D8
:1001100000000000000000000000000000000000DF
:10012000530200085302000853020008530200085B
:100130005302000800000000000000000000000062
:100140000000000000000000000000005302000852
:10015000530200085302000853020008530200082B
:1001600053020008530200080000000000000000D5
:10017000000000000000000000000000000000007F
:100180000000000053020008000000000000000012
:10019000530200085302000800F002F800F03CF897
:1001A0000AA090E8000C82448344AAF10107DA45D2
:1001B00001D100F031F8AFF2090EBAE80F0013F0E8
:1001C000010F18BFFB1A43F0010318476411000028
:1001D00084110000103A24BF78C878C1FAD85207B9
:1001E00024BF30C830C144BF04680C6070470000B1
:1001F0000023002400250026103A28BF78C1FBD830
:10020000520728BF30C148BF0B6070471FB501F0CF
:1002100081F81FBD10B510BD00F0CFF81146FFF7F3
:10022000F5FF01F04BF800F0EDF803B4FFF7F2FF33
:1002300003BC00F0F5F80000094880470948004772
:10024000FEE7FEE7FEE7FEE7FEE7FEE7FEE7FEE786
:10025000FEE7FEE704480549054A064B70470000E3
:100260008912000899010008C0000020C006002083
:10027000C0020020C002002053EA020C00F0698096
:100280002DE9F04B4FF00006002B1FBFB3FA83F5AA
:1002900003FA05F424FA05F65E4012BF1643B2FADB
:1002A00082F502FA05F4C5F120051EBF22FA05FC0D
:1002B00044EA0C04203556EA044C4FEA144418BFB3
:1002C000641C4FF000084FF00009904271EB030CE2
:1002D00039D3002919BFB1FA81F701FA07F6B0FA4C
:1002E00080F700FA07F6C7F120071EBF20FA07FCC7
:1002F00046EA0C062037B6FBF4FCA7EB0507103FD7
:1003000007F01F0BCBF120060CFA0BFB2CFA06F6BC
:1003100044BFB3460026202FA4BF5E464FF0000B1B
:100320005BEA060C08BF4FF0010B19EB0B09ABFBA6
:10033000027C48EB0608C01B06FB02CC0BFB03CC7F
:1003400071EB0C01C1E70B46024641464846BDE849
:10035000F08B13B54FF000004FF00001AFF30080B9
:10036000BDE81C4070474FF0000200B513469446AC
:100370009646203922BFA0E80C50A0E80C50B1F1FD
:100380002001BFF4F7AF090728BFA0E80C5048BF11
:100390000CC05DF804EB890028BF40F8042B08BFAF
:1003A000704748BF20F8022B11F0804F18BF00F8AB
:1003B000012B7047704770477047754600F02CF866
:1003C000AE4605006946534620F00700854618B042
:1003D00020B5FFF73FFFBDE820404FF000064FF08B
:1003E00000074FF000084FF0000B21F00701AC466A
:1003F000ACE8C009ACE8C009ACE8C009ACE8C00989
:100400008D46704710B50446AFF300802046BDE826
:100410001040FFF70ABF0000004870475C00002052
:1004200001491820ABBEFEE726000200704700001D
:10043000464910B54A6822F440324A604A68436827
:100440001A434A6001684A6822F480724A6001686F
:100450004A68036942EA03224A6001684A6822F056
:1004600040724A6001684A6883681A434A600168BA
:100470008A6822F400628A6001688A68C3681A4345
:100480008A60816A6FF07062D14201688A6822F0E6
:1004900070628A6001688A680CD0836A1A438A6035
:1004A00001688A6822F040528A6001688A68C36ADB
:1004B0001A4301E022F040528A6001688A6822F003
:1004C00002028A6001688A68037E42EA43028A6007
:1004D00090F82010002901684A680FD042F40062A9
:1004E0004A6001684A6822F460424A6001684A68CA
:1004F000174C436A04EB43331A4301E022F40062D1
:100500004A600168CA6A22F47002CA620168CA6A53
:10051000838B104C04EB03531A43CA6201688A6848
:1005200022F400728A6001688A6890F8303042EAEA
:1005300043228A6001688A6822F480628A600168C6
:100540008A68406942EA8020886010BD002301402B
:1005500000E0FFFF0000F0FFFEE7704778B50024E1
:10056000009490F83C20012A19D0012280F83C2008
:100570000A6807230568092A13D9EE680A3A02EBCC
:10058000420293409E43EE600B788A680A3B03EB7D
:1005900043039A400368DD682A43DA6010E00220D2
:1005A00078BD2E6902EB420293409E432E610B7888
:1005B0008A6803EB43039A4003681D692A431A6162
:1005C0004A681F23072A13D205686E6B521E02EB7E
:1005D000820293409E436E630A8893B20A79521E48
:1005E00002EB820293400268556B2B43536327E072
:1005F00005680D2A12D22E6BD21F02EB82029340A5
:100600009E432E630B790A88DB1F92B203EB8303B0
:100610009A4003681D6B2A431A6311E0EE6A0D3A93
:1006200002EB820293409E43EE620B790A880D3BF7
:1006300092B203EB83039A400368DD6A2A43DA62CD
:100640001B4B0568194A9D420AD10D68122D07D12E
:10065000556825F400055560556845F480055560DA
:1006600005689D421DD1134D0B68AB4201D0112B83
:1006700017D1536823F480035360536843F4000395
:1006800053600968A9420CD10B490C4A0968B1FBB7
:10069000F2F101EB8101490000E0491E00910029BF
:1006A000FBD180F83C40002078BD000000230140D1
:1006B00000200140120000101000002040420F00F6
:1006C0000068C06C704770B504004FF0000503D09F
:1006D000206C002610B107E0012070BD204600F01C
:1006E0001DF8666484F83C60206CC00610D4206C51
:1006F00020F4885040F0020020642046FFF798FE66
:100700006664206C20F0020040F00100206400E0EC
:10071000012584F83C60284670BD000010B586B005
:10072000044614216846FFF71EFE114920688842DE
:100730001CD110480021026842F4807202600068F7
:1007400000F4807005900B481438026842F00102F2
:100750000260006800F00100059001200090032075
:10076000CDE901016946044800F0F4F806B010BD77
:100770000020014044380240000002402DE9F041D1
:10078000044600680D4681684FF0000749050BD507
:100790008068C00508D5206C40F02000206484F8F3
:1007A0003C700120BDE8F08100F0C4F9064613E07A
:1007B000681C11D025B100F0BDF9801BA8420BD9EF
:1007C00020680068800707D4206C40F00400206493
:1007D00084F83C700320E5E7206800688007E7D5CF
:1007E00021686FF012000860206C40F400702064F3
:1007F0002068816811F0405F13D1217E89B9C16AF8
:1008000011F4700F02D0806840050AD4206C20F4E7
:1008100080702064206CC00403D4206C40F0010080
:1008200020640020BEE7000018B50021009190F878
:100830003C20012A07D0012280F83C2002689368FE
:10084000DB0702D011E0022018BD936843F00103DA
:100850009360244A244B1268B2FBF3F202EB42028B
:1008600000E0521E0092002AFBD102689368DB0769
:100870002ED0036C40F20164A34343F480730364FD
:1008800053685B0505D5036C23F4005343F4805390
:100890000364036CDB0404D5436C23F00603436458
:1008A00000E0416480F83C1010496FF022031360AF
:1008B00049680068C90602D00D49884210D1816894
:1008C00011F0405F0CD1816841F08041816007E008
:1008D000016C41F010010164416C41F0010141647F
:1008E000002018BD1000002040420F0000230140EE
:1008F0000020014090F83C1001290CD0012180F823
:100900003C1001688A6822F001028A6001688968E7
:10091000C90702D007E002207047016C21F488511A
:1009200041F001010164002180F83C100846704745
:1009300070B5044600F0FEF80546601C02D004487D
:100940000078044400F0F6F8401BA042FAD370BDD2
:10095000040000202DE9F84FDFF8B8A1002201249F
:1009600003254FF00F090AF1040BAAF1040E00BF92
:100970000B6804FA02F63340B34273D10F7907F0E3
:100980000307012F01D0022F16D187684FEA4208D2
:1009900005FA08FC27EA0C07D1F80CC00CFA08FC91
:1009A0004CEA070CC0F808C04768B7430E79C6F395
:1009B000001696403E4346600E79F643B6070DD0CA
:1009C000C768560005FA06FC27EA0C07D1F808C0EC
:1009D0000CFA06FC4CEA070CC0F80CC00E7906F0C5
:1009E0000306022E10D1D60800EB8608D8F8206046
:1009F00057074FEAD76C09FA0CF7BE430F6907FA9D
:100A00000CF73743C8F8207006684FEA420C05FA25
:100A10000CF7BE430F7907F0030707FA0CF73743CB
:100A200007604E6816F4403F6DD03B4E376847F480
:100A300080473760366822F0030706F48046009648
:100A4000364E07EB060CDCF8086897073F0F09FAEB
:100A500007F826EA0806DFF8C880404503D14FF0C2
:100A600000081EE04FE0DFF8BC80404502D14FF0A7
:100A7000010816E0DFF8B080404502D14FF00208CF
:100A80000FE0DFF8A880404502D14FF0030808E0EE
:100A9000DFF89C80404502D14FF0040801E04FF0A0
:100AA000070808FA07F848EA0608CCF80888DAF8D0
:100AB00000605746D1F804C09E435FEACC2C00D5B5
:100AC0001E433E60DBF800605F46D1F804C09E43E1
:100AD0005FEA8C2C00D51E433E60DEF8006077464E
:100AE000D1F804C09E435FEA8C3C00D51E433E60B3
:100AF000084F083F3E68D1F804C09E435FEACC3CF3
:100B000000D51E433E60521C102AFFF431AFBDE8F1
:100B1000F88F0000083C014044380240003001409A
:100B2000000002400004024000080240000C0240A5
:100B30000010024001488068704700000400002057
:100B400002488168027811448160704704000020E7
:100B50000B4810B5016841F400710160016841F46F
:100B600080610160016841F480710160032000F040
:100B700061F80F2000F006F800F024F8002010BD06
:100B8000003C024070B50D4D04464FF47A71287850
:100B9000B1FBF0F00A490968B1FBF0F000F0DEFAB1
:100BA00048B9102C07D200222146501E00F022F82E
:100BB00000206C6070BD012070BD000004000020AA
:100BC000100000200A4808B5016841F48041016026
:100BD000006800F4804000900548001F016841F063
:100BE00080510160006800F08050009008BD000056
:100BF00044380240F0B40E4B1B680C46C3F302238A
:100C0000C3F10705042D00D90425191D072901D2B8
:100C1000002300E0DB1E012606FA05F1491E2140F3
:100C200099409E40761E16403143F0BC00F035BB23
:100C30000CED00E0064900F0070208684FF6FF03DC
:100C4000184040EA0220034A104308607047000041
:100C50000CED00E00000FA052DE9F0470E46050016
:100C600065D0DFF81481D8F80000F7B200F0070073
:100C7000B04207D288F80070D8F8000000F00700F2
:100C8000B04254D128683D4C810712D5400703D5A6
:100C9000206840F4E05020602878000703D52068E1
:100CA00040F4604020602068A96820F0F00008430C
:100CB00020602878C0072DD030496868083901289D
:100CC00012D0022813D0032811D0096889070029FF
:100CD0002DDA216821F0030101432160FFF72AFF8B
:100CE000814641F2883A0EE009688903EFE7096816
:100CF0008901ECE7FFF71EFFA0EB0901514502D97E
:100D00000320BDE8F0872068696800F00C00B0EBB4
:100D1000810FEFD1D8F80010404601F00701B14231
:100D200007D90770006800F00700B04201D0012029
:100D3000E7E72878400705D52068E96820F4E05007
:100D4000084320602878000706D52068296920F428
:100D5000604040EAC100206000F018F82168084AAD
:100D6000C1F30311515CC840064908600648006899
:100D7000FFF708FF0020C4E7003C024008380240AB
:100D80001E1300081000002008000020154810B5B0
:100D9000006810F00C02144813D01449042A0FD034
:100DA000082A0ED10F4C241F2268236802F03F024C
:100DB0005B0207D52068C0F38810A0FB010106E0A4
:100DC000084610BD2168C1F38811A1FB0001002372
:100DD000FFF752FA2168C1F30141491C4900B0FBF9
:100DE000F1F010BD083802400024F40040787D0185
:100DF0002DE9F84F04006ED02078DFF84C93C0073F
:100E0000A9F104054AD009F104000168C1F3810188
:100E1000012908D00068C0F3810002280AD1D9F85E
:100E20000000400206D52868800337D56068002896
:100E3000E1D033E06068B0F5803F10D0B0F5A02F6E
:100E4000286810D020F480302860286820F48020A2
:100E500028606068A8B1FFF76DFE06460DE02868BF
:100E600040F48030F4E740F480202860F7E700BFCA
:100E7000FFF760FE801B642873D828688003F7D5CD
:100E80000CE0FFF757FE064605E000BFFFF752FEF5
:100E9000801B6428F0D828688003F7D42078DFF816
:100EA000AC8280074FF0000A3ED5A748001D0168BC
:100EB00011F00C0F08D00068C0F3810002280BD19C
:100EC000D9F80000400207D42868800716D5E068EA
:100ED000012800D112E033E1E068B8B10120C8F880
:100EE0000000FFF727FE064605E000BFFFF722FEE1
:100EF000801B0228C0D828688007F7D52868216998
:100F000020F0F80040EAC10028600DE0C8F800A019
:100F1000FFF710FE064604E0FFF70CFE801B0228D8
:100F20001FD828688007F7D42078000722D5864F7D
:100F300087486169703771B101210160FFF7FAFDDF
:100F4000064604E0FFF7F6FD801B022809D8386842
:100F50008007F7D50EE0C0F800A0FFF7EBFD0646CE
:100F600005E082E0FFF7E6FD801B02287DD83868A7
:100F70008007F7D42078400768D5DFF8CCB1002788
:100F80000BF13C0BDBF80000C0000BD4DBF80010C9
:100F900041F08051CBF80010DBF80000012700F091
:100FA000805000906B4E3068C00510D4306840F41B
:100FB00080703060FFF7BEFD009005E0FFF7BAFDDE
:100FC0000099401A022850D83068C005F6D55E4E08
:100FD000A0686C3601280FD00528306810D020F0AA
:100FE00001003060306820F004003060A068B8B1C3
:100FF000FFF7A0FD00900FE0306840F00100F4E73B
:1010000040F004003060F7E7FFF794FD0099411AC3
:1010100041F28830814266D830688007F4D50EE00E
:10102000FFF788FD009007E0FFF784FD0099411A63
:1010300041F28830814256D830688007F4D42FB10D
:10104000DBF8001021F08051CBF80010A069C8B384
:101050003D49091D0968C1F3810102294AD00228CE
:10106000504607D0C8F8600000E03CE0FFF762FDA2
:1010700004463BE04746C8F86000FFF75BFD0646C4
:1010800005E000BFFFF756FD801B02282BD828681B
:101090008001F7D4D4E907010843A16A2E4A490820
:1010A00002EB0141626A41EA8211084394F82C1074
:1010B00040EA0161C9F8001001203866FFF73AFDE7
:1010C000044606E03EE000BFFFF734FD001B0228A7
:1010D00009D828688001F7D534E000BFFFF72AFD62
:1010E000001B022802D90320BDE8F88F2868800180
:1010F000F4D427E00128F7D0D9F80000E26900F421
:10110000800191421CD1226A00F03F01914217D127
:1011100047F6C071626A0140B1EB821F10D1A26A2A
:101120004FF0FF3300F4403103EB5202B1EB024FBA
:1011300006D194F82C1000F07060B0EB016F01D074
:101140000120D1E70020CFE70438024000004742E9
:10115000800E4742007000400000FFFF10B5401EA7
:10116000B0F1807F01D3012010BD4FF0E024606119
:101170000F21601700F091F80020A0610720206186
:10118000002010BDFEE700007FB500241548009444
:10119000019402941249039401604FF48031C0E934
:1011A00001140461047680F820400F49C0E90A1454
:1011B0000125C561C46080F830404561FFF783FABE
:1011C00008B172B6FEE707200094CDE901506946E8
:1011D0000448FFF7C3F9002801D072B6FEE77FBDCF
:1011E00000200140140000200100000FFEE7FEE790
:1011F00070477047FFF7A4BC30B593B03021684604
:10120000FFF7B1F814210CA8FFF7ADF81C48002433
:10121000016841F080510160006800F08050119039
:101220001848016841F4404101600068022500F45B
:1012300040401190012003901020049000950695E5
:101240000820CDE907406420CDE9090504200B9072
:101250006846FFF7CDFD08B172B6FEE70F20CDE975
:101260000C054FF48050CDE90E4003210CA81094DA
:10127000FFF7F2FC002801D072B6FEE713B030BDD4
:1012800040380240007000400248016841F470019B
:101290000160704788ED00E0FEE70907090E0028AD
:1012A00004DB00F1E02080F80014704700F00F002C
:1012B00000F1E02080F8141D7047000008B5FFF72A
:1012C00047FCFFF799FF1048016841F001010160F8
:1012D000006800F001000090FFF756FF0B4C4FF440
:1012E0007A750B48FFF7A0FA29460948FFF746FA36
:1012F0000748FFF7E5F920600548FFF7FBFA0A20E9
:10130000FFF716FBEDE70000303802400000002038
:10131000140000204FF04070E1EE100A704700000A
:101320000000000000000102030406070809000095
:10133000501300080000002014000000D401000831
:101340006413000814000020AC060000F00100083F
:10135000000000000100000010000000000000007C
:041360000024F40071
:040000050800019955
:00000001FF
